{
  "_format": "hh-sol-artifact-1",
  "contractName": "InterestRateModel",
  "sourceName": "contracts/InterestRateModel.sol",
  "abi": [
    {
      "inputs": [
        {
          "components": [
            {
              "internalType": "uint256",
              "name": "baseRate",
              "type": "uint256"
            },
            {
              "internalType": "uint256",
              "name": "slope1",
              "type": "uint256"
            },
            {
              "internalType": "uint256",
              "name": "slope2",
              "type": "uint256"
            },
            {
              "internalType": "uint256",
              "name": "optimal",
              "type": "uint256"
            }
          ],
          "internalType": "struct InterestRateModel.Params",
          "name": "p",
          "type": "tuple"
        }
      ],
      "stateMutability": "nonpayable",
      "type": "constructor"
    },
    {
      "inputs": [
        {
          "internalType": "address",
          "name": "owner",
          "type": "address"
        }
      ],
      "name": "OwnableInvalidOwner",
      "type": "error"
    },
    {
      "inputs": [
        {
          "internalType": "address",
          "name": "account",
          "type": "address"
        }
      ],
      "name": "OwnableUnauthorizedAccount",
      "type": "error"
    },
    {
      "anonymous": false,
      "inputs": [
        {
          "indexed": true,
          "internalType": "address",
          "name": "previousOwner",
          "type": "address"
        },
        {
          "indexed": true,
          "internalType": "address",
          "name": "newOwner",
          "type": "address"
        }
      ],
      "name": "OwnershipTransferred",
      "type": "event"
    },
    {
      "anonymous": false,
      "inputs": [
        {
          "components": [
            {
              "internalType": "uint256",
              "name": "baseRate",
              "type": "uint256"
            },
            {
              "internalType": "uint256",
              "name": "slope1",
              "type": "uint256"
            },
            {
              "internalType": "uint256",
              "name": "slope2",
              "type": "uint256"
            },
            {
              "internalType": "uint256",
              "name": "optimal",
              "type": "uint256"
            }
          ],
          "indexed": false,
          "internalType": "struct InterestRateModel.Params",
          "name": "p",
          "type": "tuple"
        }
      ],
      "name": "ParamsUpdated",
      "type": "event"
    },
    {
      "inputs": [
        {
          "internalType": "uint256",
          "name": "utilizationWad",
          "type": "uint256"
        }
      ],
      "name": "getBorrowRate",
      "outputs": [
        {
          "internalType": "uint256",
          "name": "",
          "type": "uint256"
        }
      ],
      "stateMutability": "view",
      "type": "function"
    },
    {
      "inputs": [
        {
          "internalType": "uint256",
          "name": "utilizationWad",
          "type": "uint256"
        },
        {
          "internalType": "uint256",
          "name": "reserveFactorWad",
          "type": "uint256"
        }
      ],
      "name": "getDepositRate",
      "outputs": [
        {
          "internalType": "uint256",
          "name": "",
          "type": "uint256"
        }
      ],
      "stateMutability": "view",
      "type": "function"
    },
    {
      "inputs": [],
      "name": "owner",
      "outputs": [
        {
          "internalType": "address",
          "name": "",
          "type": "address"
        }
      ],
      "stateMutability": "view",
      "type": "function"
    },
    {
      "inputs": [],
      "name": "params",
      "outputs": [
        {
          "internalType": "uint256",
          "name": "baseRate",
          "type": "uint256"
        },
        {
          "internalType": "uint256",
          "name": "slope1",
          "type": "uint256"
        },
        {
          "internalType": "uint256",
          "name": "slope2",
          "type": "uint256"
        },
        {
          "internalType": "uint256",
          "name": "optimal",
          "type": "uint256"
        }
      ],
      "stateMutability": "view",
      "type": "function"
    },
    {
      "inputs": [],
      "name": "renounceOwnership",
      "outputs": [],
      "stateMutability": "nonpayable",
      "type": "function"
    },
    {
      "inputs": [
        {
          "internalType": "address",
          "name": "newOwner",
          "type": "address"
        }
      ],
      "name": "transferOwnership",
      "outputs": [],
      "stateMutability": "nonpayable",
      "type": "function"
    },
    {
      "inputs": [
        {
          "components": [
            {
              "internalType": "uint256",
              "name": "baseRate",
              "type": "uint256"
            },
            {
              "internalType": "uint256",
              "name": "slope1",
              "type": "uint256"
            },
            {
              "internalType": "uint256",
              "name": "slope2",
              "type": "uint256"
            },
            {
              "internalType": "uint256",
              "name": "optimal",
              "type": "uint256"
            }
          ],
          "internalType": "struct InterestRateModel.Params",
          "name": "p",
          "type": "tuple"
        }
      ],
      "name": "updateParams",
      "outputs": [],
      "stateMutability": "nonpayable",
      "type": "function"
    }
  ],
  "bytecode": "0x608060405234801561001057600080fd5b5060405161083738038061083783398101604081905261002f91610185565b338061005657604051631e4fbdf760e01b8152600060048201526024015b60405180910390fd5b61005f8161006f565b50610069816100bf565b506101fa565b600080546001600160a01b038381166001600160a01b0319831681178455604051919092169283917f8be0079c531659141344cd1fd0a4f28419497f9722a3daafe3b4186f6b6457e09190a35050565b600081606001511180156100de5750670de0b6b3a76400008160600151105b6101185760405162461bcd60e51b815260206004820152600b60248201526a10905117d3d4151253505360aa1b604482015260640161004d565b805160018190556020808301805160025560408085018051600355606080870180516004558351968752935194860194909452519084015251908201527f26bcaa727ded0cfc15f05551064fba0f730b371982e4d401befc02bfccf46b639060800160405180910390a150565b6000608082840312801561019857600080fd5b50604051600090608081016001600160401b03811182821017156101ca57634e487b7160e01b83526041600452602483fd5b60409081528451825260208086015190830152848101519082015260609384015193810193909352509092915050565b61062e806102096000396000f3fe608060405234801561001057600080fd5b506004361061007d5760003560e01c80638da5cb5b1161005b5780638da5cb5b146100c55780639fa83b5a146100e0578063cff0ab96146100f3578063f2fde38b1461012957600080fd5b80630342e1221461008257806347801178146100a8578063715018a6146100bd575b600080fd5b6100956100903660046104a9565b61013c565b6040519081526020015b60405180910390f35b6100bb6100b63660046104cb565b6101a7565b005b6100bb6101bb565b6000546040516001600160a01b03909116815260200161009f565b6100956100ee366004610541565b6101cf565b6001546002546003546004546101099392919084565b60408051948552602085019390935291830152606082015260800161009f565b6100bb61013736600461055a565b6102ee565b600080610148846101cf565b9050600061015e84670de0b6b3a7640000610599565b905061019c670de0b6b3a76400006101826b033b2e3c9fd0803ce8000000846105ac565b61018c91906105c3565b610196848861032e565b9061032e565b925050505b92915050565b6101af610366565b6101b881610393565b50565b6101c3610366565b6101cd6000610459565b565b6004546000908211610248576004546000906101f3670de0b6b3a7640000856105ac565b6101fd91906105c3565b9050610234670de0b6b3a76400006102216b033b2e3c9fd0803ce8000000846105ac565b61022b91906105c3565b6002549061032e565b60015461024191906105e5565b9392505050565b6004546000906102589084610599565b60045490915060009061027390670de0b6b3a7640000610599565b905060008161028a670de0b6b3a7640000856105ac565b61029491906105c3565b90506102cb670de0b6b3a76400006102b86b033b2e3c9fd0803ce8000000846105ac565b6102c291906105c3565b6003549061032e565b6002546001546102db91906105e5565b6102e591906105e5565b95945050505050565b6102f6610366565b6001600160a01b03811661032557604051631e4fbdf760e01b8152600060048201526024015b60405180910390fd5b6101b881610459565b60006b033b2e3c9fd0803ce80000006103486002826105c3565b61035284866105ac565b61035c91906105e5565b61024191906105c3565b6000546001600160a01b031633146101cd5760405163118cdaa760e01b815233600482015260240161031c565b600081606001511180156103b25750670de0b6b3a76400008160600151105b6103ec5760405162461bcd60e51b815260206004820152600b60248201526a10905117d3d4151253505360aa1b604482015260640161031c565b805160018190556020808301805160025560408085018051600355606080870180516004558351968752935194860194909452519084015251908201527f26bcaa727ded0cfc15f05551064fba0f730b371982e4d401befc02bfccf46b639060800160405180910390a150565b600080546001600160a01b038381166001600160a01b0319831681178455604051919092169283917f8be0079c531659141344cd1fd0a4f28419497f9722a3daafe3b4186f6b6457e09190a35050565b600080604083850312156104bc57600080fd5b50508035926020909101359150565b600060808284031280156104de57600080fd5b600090506040516080810181811067ffffffffffffffff8211171561051157634e487b7160e01b83526041600452602483fd5b60409081528435825260208086013590830152848101359082015260609384013593810193909352509092915050565b60006020828403121561055357600080fd5b5035919050565b60006020828403121561056c57600080fd5b81356001600160a01b038116811461024157600080fd5b634e487b7160e01b600052601160045260246000fd5b818103818111156101a1576101a1610583565b80820281158282048414176101a1576101a1610583565b6000826105e057634e487b7160e01b600052601260045260246000fd5b500490565b808201808211156101a1576101a161058356fea264697066735822122063ef1f533e3647eaf0308a23792612336f65fa8575acc917537049c9a88e2b5164736f6c634300081c0033",
  "linkReferences": {},
  "deployedLinkReferences": {}
}