{
  "_format": "hh-sol-artifact-1",
  "contractName": "LendingPool",
  "sourceName": "contracts/LendingPool.sol",
  "abi": [
    {
      "inputs": [
        {
          "internalType": "contract AToken",
          "name": "_aToken",
          "type": "address"
        },
        {
          "internalType": "contract PriceOracle",
          "name": "_oracle",
          "type": "address"
        },
        {
          "internalType": "contract InterestRateModel",
          "name": "_rateModel",
          "type": "address"
        }
      ],
      "stateMutability": "nonpayable",
      "type": "constructor"
    },
    {
      "inputs": [],
      "name": "AmountZero",
      "type": "error"
    },
    {
      "inputs": [],
      "name": "EnforcedPause",
      "type": "error"
    },
    {
      "inputs": [],
      "name": "ExpectedPause",
      "type": "error"
    },
    {
      "inputs": [],
      "name": "HealthFactorOk",
      "type": "error"
    },
    {
      "inputs": [],
      "name": "InsufficientCollateral",
      "type": "error"
    },
    {
      "inputs": [],
      "name": "InsufficientDebt",
      "type": "error"
    },
    {
      "inputs": [
        {
          "internalType": "address",
          "name": "owner",
          "type": "address"
        }
      ],
      "name": "OwnableInvalidOwner",
      "type": "error"
    },
    {
      "inputs": [
        {
          "internalType": "address",
          "name": "account",
          "type": "address"
        }
      ],
      "name": "OwnableUnauthorizedAccount",
      "type": "error"
    },
    {
      "inputs": [],
      "name": "ReentrancyGuardReentrantCall",
      "type": "error"
    },
    {
      "inputs": [
        {
          "internalType": "address",
          "name": "token",
          "type": "address"
        }
      ],
      "name": "SafeERC20FailedOperation",
      "type": "error"
    },
    {
      "inputs": [],
      "name": "TokenZero",
      "type": "error"
    },
    {
      "anonymous": false,
      "inputs": [
        {
          "indexed": true,
          "internalType": "address",
          "name": "token",
          "type": "address"
        },
        {
          "indexed": true,
          "internalType": "address",
          "name": "user",
          "type": "address"
        },
        {
          "indexed": false,
          "internalType": "uint256",
          "name": "amount",
          "type": "uint256"
        }
      ],
      "name": "Borrow",
      "type": "event"
    },
    {
      "anonymous": false,
      "inputs": [
        {
          "indexed": true,
          "internalType": "address",
          "name": "token",
          "type": "address"
        },
        {
          "indexed": true,
          "internalType": "address",
          "name": "user",
          "type": "address"
        },
        {
          "indexed": false,
          "internalType": "uint256",
          "name": "amount",
          "type": "uint256"
        }
      ],
      "name": "Deposit",
      "type": "event"
    },
    {
      "anonymous": false,
      "inputs": [
        {
          "indexed": true,
          "internalType": "address",
          "name": "token",
          "type": "address"
        },
        {
          "indexed": false,
          "internalType": "uint256",
          "name": "amount",
          "type": "uint256"
        }
      ],
      "name": "EmergencyWithdrawal",
      "type": "event"
    },
    {
      "anonymous": false,
      "inputs": [
        {
          "indexed": true,
          "internalType": "address",
          "name": "token",
          "type": "address"
        },
        {
          "indexed": true,
          "internalType": "address",
          "name": "user",
          "type": "address"
        },
        {
          "indexed": false,
          "internalType": "uint256",
          "name": "repayAmount",
          "type": "uint256"
        },
        {
          "indexed": false,
          "internalType": "uint256",
          "name": "collateralSeized",
          "type": "uint256"
        }
      ],
      "name": "Liquidate",
      "type": "event"
    },
    {
      "anonymous": false,
      "inputs": [
        {
          "indexed": true,
          "internalType": "address",
          "name": "previousOwner",
          "type": "address"
        },
        {
          "indexed": true,
          "internalType": "address",
          "name": "newOwner",
          "type": "address"
        }
      ],
      "name": "OwnershipTransferred",
      "type": "event"
    },
    {
      "anonymous": false,
      "inputs": [
        {
          "indexed": false,
          "internalType": "address",
          "name": "account",
          "type": "address"
        }
      ],
      "name": "Paused",
      "type": "event"
    },
    {
      "anonymous": false,
      "inputs": [
        {
          "indexed": true,
          "internalType": "address",
          "name": "token",
          "type": "address"
        },
        {
          "indexed": true,
          "internalType": "address",
          "name": "user",
          "type": "address"
        },
        {
          "indexed": false,
          "internalType": "uint256",
          "name": "amount",
          "type": "uint256"
        }
      ],
      "name": "Repay",
      "type": "event"
    },
    {
      "anonymous": false,
      "inputs": [
        {
          "indexed": false,
          "internalType": "address",
          "name": "account",
          "type": "address"
        }
      ],
      "name": "Unpaused",
      "type": "event"
    },
    {
      "anonymous": false,
      "inputs": [
        {
          "indexed": true,
          "internalType": "address",
          "name": "token",
          "type": "address"
        },
        {
          "indexed": true,
          "internalType": "address",
          "name": "user",
          "type": "address"
        },
        {
          "indexed": false,
          "internalType": "uint256",
          "name": "amount",
          "type": "uint256"
        }
      ],
      "name": "Withdraw",
      "type": "event"
    },
    {
      "inputs": [],
      "name": "aToken",
      "outputs": [
        {
          "internalType": "contract AToken",
          "name": "",
          "type": "address"
        }
      ],
      "stateMutability": "view",
      "type": "function"
    },
    {
      "inputs": [
        {
          "internalType": "address",
          "name": "token",
          "type": "address"
        },
        {
          "internalType": "uint256",
          "name": "amount",
          "type": "uint256"
        }
      ],
      "name": "borrow",
      "outputs": [],
      "stateMutability": "nonpayable",
      "type": "function"
    },
    {
      "inputs": [
        {
          "internalType": "address",
          "name": "token",
          "type": "address"
        },
        {
          "internalType": "uint256",
          "name": "amount",
          "type": "uint256"
        }
      ],
      "name": "deposit",
      "outputs": [],
      "stateMutability": "nonpayable",
      "type": "function"
    },
    {
      "inputs": [
        {
          "internalType": "address",
          "name": "token",
          "type": "address"
        }
      ],
      "name": "emergencyWithdraw",
      "outputs": [],
      "stateMutability": "nonpayable",
      "type": "function"
    },
    {
      "inputs": [
        {
          "internalType": "address",
          "name": "token",
          "type": "address"
        }
      ],
      "name": "getReserveData",
      "outputs": [
        {
          "components": [
            {
              "internalType": "uint256",
              "name": "totalCollateral",
              "type": "uint256"
            },
            {
              "internalType": "uint256",
              "name": "totalDebt",
              "type": "uint256"
            },
            {
              "internalType": "uint128",
              "name": "borrowIndex",
              "type": "uint128"
            },
            {
              "internalType": "uint40",
              "name": "lastUpdate",
              "type": "uint40"
            }
          ],
          "internalType": "struct LendingPool.ReserveData",
          "name": "",
          "type": "tuple"
        }
      ],
      "stateMutability": "view",
      "type": "function"
    },
    {
      "inputs": [
        {
          "internalType": "address",
          "name": "token",
          "type": "address"
        },
        {
          "internalType": "address",
          "name": "user",
          "type": "address"
        }
      ],
      "name": "getUserCollateral",
      "outputs": [
        {
          "internalType": "uint256",
          "name": "",
          "type": "uint256"
        }
      ],
      "stateMutability": "view",
      "type": "function"
    },
    {
      "inputs": [
        {
          "internalType": "address",
          "name": "token",
          "type": "address"
        },
        {
          "internalType": "address",
          "name": "user",
          "type": "address"
        }
      ],
      "name": "getUserDebt",
      "outputs": [
        {
          "internalType": "uint256",
          "name": "",
          "type": "uint256"
        }
      ],
      "stateMutability": "view",
      "type": "function"
    },
    {
      "inputs": [
        {
          "internalType": "address",
          "name": "token",
          "type": "address"
        },
        {
          "internalType": "address",
          "name": "user",
          "type": "address"
        },
        {
          "internalType": "uint256",
          "name": "repayAmount",
          "type": "uint256"
        }
      ],
      "name": "liquidate",
      "outputs": [],
      "stateMutability": "nonpayable",
      "type": "function"
    },
    {
      "inputs": [],
      "name": "oracle",
      "outputs": [
        {
          "internalType": "contract PriceOracle",
          "name": "",
          "type": "address"
        }
      ],
      "stateMutability": "view",
      "type": "function"
    },
    {
      "inputs": [],
      "name": "owner",
      "outputs": [
        {
          "internalType": "address",
          "name": "",
          "type": "address"
        }
      ],
      "stateMutability": "view",
      "type": "function"
    },
    {
      "inputs": [],
      "name": "pause",
      "outputs": [],
      "stateMutability": "nonpayable",
      "type": "function"
    },
    {
      "inputs": [],
      "name": "paused",
      "outputs": [
        {
          "internalType": "bool",
          "name": "",
          "type": "bool"
        }
      ],
      "stateMutability": "view",
      "type": "function"
    },
    {
      "inputs": [],
      "name": "rateModel",
      "outputs": [
        {
          "internalType": "contract InterestRateModel",
          "name": "",
          "type": "address"
        }
      ],
      "stateMutability": "view",
      "type": "function"
    },
    {
      "inputs": [],
      "name": "renounceOwnership",
      "outputs": [],
      "stateMutability": "nonpayable",
      "type": "function"
    },
    {
      "inputs": [
        {
          "internalType": "address",
          "name": "token",
          "type": "address"
        },
        {
          "internalType": "uint256",
          "name": "amount",
          "type": "uint256"
        }
      ],
      "name": "repay",
      "outputs": [],
      "stateMutability": "nonpayable",
      "type": "function"
    },
    {
      "inputs": [
        {
          "internalType": "address",
          "name": "newOwner",
          "type": "address"
        }
      ],
      "name": "transferOwnership",
      "outputs": [],
      "stateMutability": "nonpayable",
      "type": "function"
    },
    {
      "inputs": [],
      "name": "unpause",
      "outputs": [],
      "stateMutability": "nonpayable",
      "type": "function"
    },
    {
      "inputs": [
        {
          "internalType": "address",
          "name": "token",
          "type": "address"
        },
        {
          "internalType": "uint256",
          "name": "amount",
          "type": "uint256"
        }
      ],
      "name": "withdraw",
      "outputs": [],
      "stateMutability": "nonpayable",
      "type": "function"
    }
  ],
  "bytecode": "0x60e060405234801561001057600080fd5b506040516115db3803806115db83398101604081905261002f916101bf565b6001600055338061005b57604051631e4fbdf760e01b8152600060048201526024015b60405180910390fd5b6100648161014d565b506001600160a01b0383166100a95760405162461bcd60e51b815260206004820152600b60248201526a41544f4b454e5f5a45524f60a81b6044820152606401610052565b6001600160a01b0382166100ed5760405162461bcd60e51b815260206004820152600b60248201526a4f5241434c455f5a45524f60a81b6044820152606401610052565b6001600160a01b0381166101305760405162461bcd60e51b815260206004820152600a6024820152694d4f44454c5f5a45524f60b01b6044820152606401610052565b6001600160a01b0392831660805290821660a0521660c05261020c565b600180546001600160a01b03838116610100818102610100600160a81b031985161790945560405193909204169182907f8be0079c531659141344cd1fd0a4f28419497f9722a3daafe3b4186f6b6457e090600090a35050565b6001600160a01b03811681146101bc57600080fd5b50565b6000806000606084860312156101d457600080fd5b83516101df816101a7565b60208501519093506101f0816101a7565b6040850151909250610201816101a7565b809150509250925092565b60805160a05160c05161138b610250600039600081816103090152610df2015260006102850152600081816102e2015281816107c10152610c34015261138b6000f3fe608060405234801561001057600080fd5b50600436106101165760003560e01c80637dc0d1d0116100a2578063a108845911610071578063a108845914610304578063a2a00ed61461032b578063a55e86681461034c578063f2fde38b14610385578063f3fef3a31461039857600080fd5b80637dc0d1d0146102805780638456cb59146102bf5780638da5cb5b146102c7578063a0c1f15e146102dd57600080fd5b806347e7ef24116100e957806347e7ef24146102295780634b8a35291461023c5780635c975abb1461024f5780636ff1c9bc14610265578063715018a61461027857600080fd5b806322867d781461011b57806326c013031461013057806335ea6a75146101435780633f4ba83a14610221575b600080fd5b61012e6101293660046111ee565b6103ab565b005b61012e61013e366004611218565b61050d565b6101d5610151366004611255565b604080516080810182526000808252602082018190529181018290526060810191909152506001600160a01b0316600090815260026020818152604092839020835160808101855281548152600182015492810192909252909101546001600160801b03811692820192909252600160801b90910464ffffffffff16606082015290565b604051610218919081518152602080830151908201526040808301516001600160801b03169082015260609182015164ffffffffff169181019190915260800190565b60405180910390f35b61012e6106b7565b61012e6102373660046111ee565b6106c9565b61012e61024a3660046111ee565b610871565b60015460ff166040519015158152602001610218565b61012e610273366004611255565b61098d565b61012e610a8e565b6102a77f000000000000000000000000000000000000000000000000000000000000000081565b6040516001600160a01b039091168152602001610218565b61012e610aa0565b60015461010090046001600160a01b03166102a7565b6102a77f000000000000000000000000000000000000000000000000000000000000000081565b6102a77f000000000000000000000000000000000000000000000000000000000000000081565b61033e610339366004611277565b610ab0565b604051908152602001610218565b61033e61035a366004611277565b6001600160a01b03918216600090815260036020908152604080832093909416825291909152205490565b61012e610393366004611255565b610add565b61012e6103a63660046111ee565b610b20565b6103b3610cea565b6103bb610d14565b816001600160a01b0381166103e35760405163ab42242d60e01b815260040160405180910390fd5b81600003610404576040516365e52d5160e11b815260040160405180910390fd5b61040d83610d38565b6001600160a01b0383166000908152600460209081526040808320338452909152902054828110156104525760405163ac4314a960e01b815260040160405180910390fd5b61045c83826112c0565b6001600160a01b0385166000818152600460209081526040808320338452825280832094909455918152600290915290812060010180548592906104a19084906112c0565b909155506104bc90506001600160a01b038516333086610eed565b60405183815233906001600160a01b038616907f05f2eeda0e08e4b437f487c8d7d29b14537d15e3488170dc3de5dbdf8dac4684906020015b60405180910390a350506105096001600055565b5050565b610515610cea565b61051d610d14565b826001600160a01b0381166105455760405163ab42242d60e01b815260040160405180910390fd5b61054e84610d38565b6001600160a01b038416600090815260026020526040812060010180548492906105799084906112c0565b90915550506001600160a01b038085166000908152600460209081526040808320938716835292905290812080548492906105b59084906112c0565b909155506105d090506001600160a01b038516333085610eed565b6001600160a01b0380851660009081526003602090815260408083209387168352929052908120805484928392916106099084906112c0565b90915550506001600160a01b038516600090815260026020526040812080548392906106369084906112c0565b9091555061065090506001600160a01b0386163383610f5a565b836001600160a01b0316856001600160a01b03167ff3fa0eaee8f258c23b013654df25d1527f98a5c7ccd5e951dd77caca400ef972858460405161069e929190918252602082015260400190565b60405180910390a350506106b26001600055565b505050565b6106bf610f8b565b6106c7610fbe565b565b6106d1610cea565b6106d9610d14565b816001600160a01b0381166107015760405163ab42242d60e01b815260040160405180910390fd5b81600003610722576040516365e52d5160e11b815260040160405180910390fd5b61072b83611010565b6107406001600160a01b038416333085610eed565b6001600160a01b038316600090815260026020526040812080548492906107689084906112d3565b90915550506001600160a01b0383166000908152600360209081526040808320338452909152812080548492906107a09084906112d3565b90915550506040516340c10f1960e01b8152336004820152602481018390527f00000000000000000000000000000000000000000000000000000000000000006001600160a01b0316906340c10f1990604401600060405180830381600087803b15801561080d57600080fd5b505af1158015610821573d6000803e3d6000fd5b50506040518481523392506001600160a01b03861691507f5548c837ab068cf56a2c2479df0882a4922fd203edb7517321831d95078c5f62906020015b60405180910390a3506105096001600055565b610879610cea565b610881610d14565b816001600160a01b0381166108a95760405163ab42242d60e01b815260040160405180910390fd5b816000036108ca576040516365e52d5160e11b815260040160405180910390fd5b6108d383610d38565b6001600160a01b038316600090815260026020526040812060010180548492906108fe9084906112d3565b90915550506001600160a01b0383166000908152600460209081526040808320338452909152812080548492906109369084906112d3565b9091555061095090506001600160a01b0384163384610f5a565b60405182815233906001600160a01b038516907f312a5e5e1079f5dda4e95dbbd0b908b291fd5b992ef22073643ab691572c5b529060200161085e565b610995610f8b565b61099d6110a9565b806001600160a01b0381166109c55760405163ab42242d60e01b815260040160405180910390fd5b6040516370a0823160e01b81523060048201526000906001600160a01b038416906370a0823190602401602060405180830381865afa158015610a0c573d6000803e3d6000fd5b505050506040513d601f19601f82011682018060405250810190610a3091906112e6565b9050610a466001600160a01b0384163383610f5a565b826001600160a01b03167f23d6711a1d031134a36921253c75aa59e967d38e369ac625992824315e204f2082604051610a8191815260200190565b60405180910390a2505050565b610a96610f8b565b6106c760006110cc565b610aa8610f8b565b6106c7611126565b6001600160a01b038083166000908152600460209081526040808320938516835292905220545b92915050565b610ae5610f8b565b6001600160a01b038116610b1457604051631e4fbdf760e01b8152600060048201526024015b60405180910390fd5b610b1d816110cc565b50565b610b28610cea565b610b30610d14565b816001600160a01b038116610b585760405163ab42242d60e01b815260040160405180910390fd5b81600003610b79576040516365e52d5160e11b815260040160405180910390fd5b610b8283611010565b6001600160a01b038316600090815260036020908152604080832033845290915290205482811015610bc757604051633a23d82560e01b815260040160405180910390fd5b610bd183826112c0565b6001600160a01b038516600081815260036020908152604080832033845282528083209490945591815260029091529081208054859290610c139084906112c0565b9091555050604051632770a7eb60e21b8152336004820152602481018490527f00000000000000000000000000000000000000000000000000000000000000006001600160a01b031690639dc29fac90604401600060405180830381600087803b158015610c8057600080fd5b505af1158015610c94573d6000803e3d6000fd5b50610cad925050506001600160a01b0385163385610f5a565b60405183815233906001600160a01b038616907f9b1bfa7fa9ee420a16e124f794c35ac9f90472acc99140eb2f6447c714cad8eb906020016104f5565b600260005403610d0d57604051633ee5aeb560e01b815260040160405180910390fd5b6002600055565b60015460ff16156106c75760405163d93c066560e01b815260040160405180910390fd5b6001600160a01b038116600090815260026020819052604082209081015490914291610d7290600160801b900464ffffffffff16836112ff565b90508064ffffffffff16600003610d895750505050565b825460009015610dc05783546001850154610db1906b033b2e3c9fd0803ce80000009061131c565b610dbb9190611333565b610dce565b6b033b2e3c9fd0803ce80000005b604051634fd41dad60e11b8152600481018290529091506000906001600160a01b037f00000000000000000000000000000000000000000000000000000000000000001690639fa83b5a90602401602060405180830381865afa158015610e39573d6000803e3d6000fd5b505050506040513d601f19601f82011682018060405250810190610e5d91906112e6565b60028601549091506000906001600160801b03166b033b2e3c9fd0803ce800000081610e9064ffffffffff88168661131c565b610e9a919061131c565b610ea49190611333565b610eae91906112d3565b6002909601805464ffffffffff909616600160801b026001600160a81b03199096166001600160801b0390971696909617949094179094555050505050565b6040516001600160a01b038481166024830152838116604483015260648201839052610f549186918216906323b872dd906084015b604051602081830303815290604052915060e01b6020820180516001600160e01b038381831617835250505050611161565b50505050565b6040516001600160a01b038381166024830152604482018390526106b291859182169063a9059cbb90606401610f22565b6001546001600160a01b036101009091041633146106c75760405163118cdaa760e01b8152336004820152602401610b0b565b610fc66110a9565b6001805460ff191690557f5db9ee0a495bf2e6ff9c91a7834c1ba4fdd244a5e8aa4e537bd38aeae4b073aa335b6040516001600160a01b03909116815260200160405180910390a1565b6001600160a01b038116600090815260026020819052604082209081015490916001600160801b03909116900361106b576002810180546fffffffffffffffffffffffffffffffff19166b033b2e3c9fd0803ce80000001790555b6002810154600160801b900464ffffffffff1660000361050957600201805464ffffffffff60801b1916600160801b4264ffffffffff160217905550565b60015460ff166106c757604051638dfc202b60e01b815260040160405180910390fd5b600180546001600160a01b03838116610100818102610100600160a81b031985161790945560405193909204169182907f8be0079c531659141344cd1fd0a4f28419497f9722a3daafe3b4186f6b6457e090600090a35050565b61112e610d14565b6001805460ff1916811790557f62e78cea01bee320cd4e420270b5ea74000d11b0c9f74754ebdbfc544b05a25833610ff3565b600080602060008451602086016000885af180611184576040513d6000823e3d81fd5b50506000513d9150811561119c5780600114156111a9565b6001600160a01b0384163b155b15610f5457604051635274afe760e01b81526001600160a01b0385166004820152602401610b0b565b80356001600160a01b03811681146111e957600080fd5b919050565b6000806040838503121561120157600080fd5b61120a836111d2565b946020939093013593505050565b60008060006060848603121561122d57600080fd5b611236846111d2565b9250611244602085016111d2565b929592945050506040919091013590565b60006020828403121561126757600080fd5b611270826111d2565b9392505050565b6000806040838503121561128a57600080fd5b611293836111d2565b91506112a1602084016111d2565b90509250929050565b634e487b7160e01b600052601160045260246000fd5b81810381811115610ad757610ad76112aa565b80820180821115610ad757610ad76112aa565b6000602082840312156112f857600080fd5b5051919050565b64ffffffffff8281168282160390811115610ad757610ad76112aa565b8082028115828204841417610ad757610ad76112aa565b60008261135057634e487b7160e01b600052601260045260246000fd5b50049056fea2646970667358221220feabb0d1c5102f89c5adacdd366aeef37a751318940c3ac619b228bd15ea876564736f6c634300081c0033",
  "linkReferences": {},
  "deployedLinkReferences": {}
}