{
  "_format": "hh-sol-artifact-1",
  "contractName": "LendingPool",
  "sourceName": "contracts/LendingPool.sol",
  "abi": [
    {
      "inputs": [
        {
          "internalType": "contract AToken",
          "name": "_aToken",
          "type": "address"
        },
        {
          "internalType": "contract PriceOracle",
          "name": "_oracle",
          "type": "address"
        },
        {
          "internalType": "contract InterestRateModel",
          "name": "_rateModel",
          "type": "address"
        }
      ],
      "stateMutability": "nonpayable",
      "type": "constructor"
    },
    {
      "inputs": [],
      "name": "AmountZero",
      "type": "error"
    },
    {
      "inputs": [],
      "name": "EnforcedPause",
      "type": "error"
    },
    {
      "inputs": [],
      "name": "ExpectedPause",
      "type": "error"
    },
    {
      "inputs": [],
      "name": "HealthFactorOk",
      "type": "error"
    },
    {
      "inputs": [],
      "name": "HealthFactorTooLow",
      "type": "error"
    },
    {
      "inputs": [],
      "name": "InsufficientCollateral",
      "type": "error"
    },
    {
      "inputs": [],
      "name": "InsufficientDebt",
      "type": "error"
    },
    {
      "inputs": [
        {
          "internalType": "address",
          "name": "owner",
          "type": "address"
        }
      ],
      "name": "OwnableInvalidOwner",
      "type": "error"
    },
    {
      "inputs": [
        {
          "internalType": "address",
          "name": "account",
          "type": "address"
        }
      ],
      "name": "OwnableUnauthorizedAccount",
      "type": "error"
    },
    {
      "inputs": [],
      "name": "ReentrancyGuardReentrantCall",
      "type": "error"
    },
    {
      "inputs": [
        {
          "internalType": "address",
          "name": "token",
          "type": "address"
        }
      ],
      "name": "SafeERC20FailedOperation",
      "type": "error"
    },
    {
      "inputs": [],
      "name": "TokenZero",
      "type": "error"
    },
    {
      "anonymous": false,
      "inputs": [
        {
          "indexed": true,
          "internalType": "address",
          "name": "token",
          "type": "address"
        },
        {
          "indexed": true,
          "internalType": "address",
          "name": "user",
          "type": "address"
        },
        {
          "indexed": false,
          "internalType": "uint256",
          "name": "amount",
          "type": "uint256"
        }
      ],
      "name": "Borrow",
      "type": "event"
    },
    {
      "anonymous": false,
      "inputs": [
        {
          "indexed": true,
          "internalType": "address",
          "name": "token",
          "type": "address"
        },
        {
          "indexed": true,
          "internalType": "address",
          "name": "user",
          "type": "address"
        },
        {
          "indexed": false,
          "internalType": "uint256",
          "name": "amount",
          "type": "uint256"
        }
      ],
      "name": "Deposit",
      "type": "event"
    },
    {
      "anonymous": false,
      "inputs": [
        {
          "indexed": true,
          "internalType": "address",
          "name": "token",
          "type": "address"
        },
        {
          "indexed": false,
          "internalType": "uint256",
          "name": "amount",
          "type": "uint256"
        }
      ],
      "name": "EmergencyWithdrawal",
      "type": "event"
    },
    {
      "anonymous": false,
      "inputs": [
        {
          "indexed": true,
          "internalType": "address",
          "name": "token",
          "type": "address"
        },
        {
          "indexed": true,
          "internalType": "address",
          "name": "user",
          "type": "address"
        },
        {
          "indexed": false,
          "internalType": "uint256",
          "name": "repayAmount",
          "type": "uint256"
        },
        {
          "indexed": false,
          "internalType": "uint256",
          "name": "collateralSeized",
          "type": "uint256"
        }
      ],
      "name": "Liquidate",
      "type": "event"
    },
    {
      "anonymous": false,
      "inputs": [
        {
          "indexed": true,
          "internalType": "address",
          "name": "previousOwner",
          "type": "address"
        },
        {
          "indexed": true,
          "internalType": "address",
          "name": "newOwner",
          "type": "address"
        }
      ],
      "name": "OwnershipTransferred",
      "type": "event"
    },
    {
      "anonymous": false,
      "inputs": [
        {
          "indexed": false,
          "internalType": "address",
          "name": "account",
          "type": "address"
        }
      ],
      "name": "Paused",
      "type": "event"
    },
    {
      "anonymous": false,
      "inputs": [
        {
          "indexed": true,
          "internalType": "address",
          "name": "token",
          "type": "address"
        },
        {
          "indexed": true,
          "internalType": "address",
          "name": "user",
          "type": "address"
        },
        {
          "indexed": false,
          "internalType": "uint256",
          "name": "amount",
          "type": "uint256"
        }
      ],
      "name": "Repay",
      "type": "event"
    },
    {
      "anonymous": false,
      "inputs": [
        {
          "indexed": false,
          "internalType": "address",
          "name": "account",
          "type": "address"
        }
      ],
      "name": "Unpaused",
      "type": "event"
    },
    {
      "anonymous": false,
      "inputs": [
        {
          "indexed": true,
          "internalType": "address",
          "name": "token",
          "type": "address"
        },
        {
          "indexed": true,
          "internalType": "address",
          "name": "user",
          "type": "address"
        },
        {
          "indexed": false,
          "internalType": "uint256",
          "name": "amount",
          "type": "uint256"
        }
      ],
      "name": "Withdraw",
      "type": "event"
    },
    {
      "inputs": [],
      "name": "aToken",
      "outputs": [
        {
          "internalType": "contract AToken",
          "name": "",
          "type": "address"
        }
      ],
      "stateMutability": "view",
      "type": "function"
    },
    {
      "inputs": [
        {
          "internalType": "address",
          "name": "token",
          "type": "address"
        },
        {
          "internalType": "uint256",
          "name": "amount",
          "type": "uint256"
        }
      ],
      "name": "borrow",
      "outputs": [],
      "stateMutability": "nonpayable",
      "type": "function"
    },
    {
      "inputs": [
        {
          "internalType": "address",
          "name": "token",
          "type": "address"
        },
        {
          "internalType": "uint256",
          "name": "amount",
          "type": "uint256"
        }
      ],
      "name": "deposit",
      "outputs": [],
      "stateMutability": "nonpayable",
      "type": "function"
    },
    {
      "inputs": [
        {
          "internalType": "address",
          "name": "token",
          "type": "address"
        }
      ],
      "name": "emergencyWithdraw",
      "outputs": [],
      "stateMutability": "nonpayable",
      "type": "function"
    },
    {
      "inputs": [
        {
          "internalType": "address",
          "name": "token",
          "type": "address"
        },
        {
          "internalType": "address",
          "name": "user",
          "type": "address"
        }
      ],
      "name": "getHealthFactor",
      "outputs": [
        {
          "internalType": "uint256",
          "name": "",
          "type": "uint256"
        }
      ],
      "stateMutability": "view",
      "type": "function"
    },
    {
      "inputs": [
        {
          "internalType": "address",
          "name": "token",
          "type": "address"
        }
      ],
      "name": "getReserveData",
      "outputs": [
        {
          "components": [
            {
              "internalType": "uint256",
              "name": "totalCollateral",
              "type": "uint256"
            },
            {
              "internalType": "uint256",
              "name": "totalDebt",
              "type": "uint256"
            },
            {
              "internalType": "uint128",
              "name": "borrowIndex",
              "type": "uint128"
            },
            {
              "internalType": "uint40",
              "name": "lastUpdate",
              "type": "uint40"
            }
          ],
          "internalType": "struct LendingPool.ReserveData",
          "name": "",
          "type": "tuple"
        }
      ],
      "stateMutability": "view",
      "type": "function"
    },
    {
      "inputs": [
        {
          "internalType": "address",
          "name": "token",
          "type": "address"
        },
        {
          "internalType": "address",
          "name": "user",
          "type": "address"
        }
      ],
      "name": "getUserCollateral",
      "outputs": [
        {
          "internalType": "uint256",
          "name": "",
          "type": "uint256"
        }
      ],
      "stateMutability": "view",
      "type": "function"
    },
    {
      "inputs": [
        {
          "internalType": "address",
          "name": "token",
          "type": "address"
        },
        {
          "internalType": "address",
          "name": "user",
          "type": "address"
        }
      ],
      "name": "getUserDebt",
      "outputs": [
        {
          "internalType": "uint256",
          "name": "",
          "type": "uint256"
        }
      ],
      "stateMutability": "view",
      "type": "function"
    },
    {
      "inputs": [
        {
          "internalType": "address",
          "name": "token",
          "type": "address"
        },
        {
          "internalType": "address",
          "name": "user",
          "type": "address"
        },
        {
          "internalType": "uint256",
          "name": "repayAmount",
          "type": "uint256"
        }
      ],
      "name": "liquidate",
      "outputs": [],
      "stateMutability": "nonpayable",
      "type": "function"
    },
    {
      "inputs": [],
      "name": "oracle",
      "outputs": [
        {
          "internalType": "contract PriceOracle",
          "name": "",
          "type": "address"
        }
      ],
      "stateMutability": "view",
      "type": "function"
    },
    {
      "inputs": [],
      "name": "owner",
      "outputs": [
        {
          "internalType": "address",
          "name": "",
          "type": "address"
        }
      ],
      "stateMutability": "view",
      "type": "function"
    },
    {
      "inputs": [],
      "name": "pause",
      "outputs": [],
      "stateMutability": "nonpayable",
      "type": "function"
    },
    {
      "inputs": [],
      "name": "paused",
      "outputs": [
        {
          "internalType": "bool",
          "name": "",
          "type": "bool"
        }
      ],
      "stateMutability": "view",
      "type": "function"
    },
    {
      "inputs": [],
      "name": "rateModel",
      "outputs": [
        {
          "internalType": "contract InterestRateModel",
          "name": "",
          "type": "address"
        }
      ],
      "stateMutability": "view",
      "type": "function"
    },
    {
      "inputs": [],
      "name": "renounceOwnership",
      "outputs": [],
      "stateMutability": "nonpayable",
      "type": "function"
    },
    {
      "inputs": [
        {
          "internalType": "address",
          "name": "token",
          "type": "address"
        },
        {
          "internalType": "uint256",
          "name": "amount",
          "type": "uint256"
        }
      ],
      "name": "repay",
      "outputs": [],
      "stateMutability": "nonpayable",
      "type": "function"
    },
    {
      "inputs": [
        {
          "internalType": "address",
          "name": "newOwner",
          "type": "address"
        }
      ],
      "name": "transferOwnership",
      "outputs": [],
      "stateMutability": "nonpayable",
      "type": "function"
    },
    {
      "inputs": [],
      "name": "unpause",
      "outputs": [],
      "stateMutability": "nonpayable",
      "type": "function"
    },
    {
      "inputs": [
        {
          "internalType": "address",
          "name": "token",
          "type": "address"
        },
        {
          "internalType": "uint256",
          "name": "amount",
          "type": "uint256"
        }
      ],
      "name": "withdraw",
      "outputs": [],
      "stateMutability": "nonpayable",
      "type": "function"
    }
  ],
  "bytecode": "0x60e060405234801561001057600080fd5b50604051611a82380380611a8283398101604081905261002f916101bf565b6001600055338061005b57604051631e4fbdf760e01b8152600060048201526024015b60405180910390fd5b6100648161014d565b506001600160a01b0383166100a95760405162461bcd60e51b815260206004820152600b60248201526a41544f4b454e5f5a45524f60a81b6044820152606401610052565b6001600160a01b0382166100ed5760405162461bcd60e51b815260206004820152600b60248201526a4f5241434c455f5a45524f60a81b6044820152606401610052565b6001600160a01b0381166101305760405162461bcd60e51b815260206004820152600a6024820152694d4f44454c5f5a45524f60b01b6044820152606401610052565b6001600160a01b0392831660805290821660a0521660c05261020c565b600180546001600160a01b03838116610100818102610100600160a81b031985161790945560405193909204169182907f8be0079c531659141344cd1fd0a4f28419497f9722a3daafe3b4186f6b6457e090600090a35050565b6001600160a01b03811681146101bc57600080fd5b50565b6000806000606084860312156101d457600080fd5b83516101df816101a7565b60208501519093506101f0816101a7565b6040850151909250610201816101a7565b809150509250925092565b60805160a05160c05161182b6102576000396000818161033501526110340152600081816102b101526111d001526000818161030e015281816108f80152610e76015261182b6000f3fe608060405234801561001057600080fd5b50600436106101215760003560e01c8063715018a6116100ad578063a108845911610071578063a108845914610330578063a2a00ed614610357578063a55e866814610390578063f2fde38b146103c9578063f3fef3a3146103dc57600080fd5b8063715018a6146102a45780637dc0d1d0146102ac5780638456cb59146102eb5780638da5cb5b146102f3578063a0c1f15e1461030957600080fd5b806347e7ef24116100f457806347e7ef24146102345780634b8a35291461024757806357c89a7d1461025a5780635c975abb1461027b5780636ff1c9bc1461029157600080fd5b806322867d781461012657806326c013031461013b57806335ea6a751461014e5780633f4ba83a1461022c575b600080fd5b610139610134366004611568565b6103ef565b005b610139610149366004611592565b610550565b6101e061015c3660046115cf565b604080516080810182526000808252602082018190529181018290526060810191909152506001600160a01b0316600090815260026020818152604092839020835160808101855281548152600182015492810192909252909101546001600160801b03811692820192909252600160801b90910464ffffffffff16606082015290565b604051610223919081518152602080830151908201526040808301516001600160801b03169082015260609182015164ffffffffff169181019190915260800190565b60405180910390f35b6101396107ee565b610139610242366004611568565b610800565b610139610255366004611568565b6109a7565b61026d6102683660046115ea565b610b47565b604051908152602001610223565b60015460ff166040519015158152602001610223565b61013961029f3660046115cf565b610b98565b610139610c99565b6102d37f000000000000000000000000000000000000000000000000000000000000000081565b6040516001600160a01b039091168152602001610223565b610139610cab565b60015461010090046001600160a01b03166102d3565b6102d37f000000000000000000000000000000000000000000000000000000000000000081565b6102d37f000000000000000000000000000000000000000000000000000000000000000081565b61026d6103653660046115ea565b6001600160a01b03918216600090815260046020908152604080832093909416825291909152205490565b61026d61039e3660046115ea565b6001600160a01b03918216600090815260036020908152604080832093909416825291909152205490565b6101396103d73660046115cf565b610cbb565b6101396103ea366004611568565b610cfe565b6103f7610f2c565b6103ff610f56565b816001600160a01b0381166104275760405163ab42242d60e01b815260040160405180910390fd5b81600003610448576040516365e52d5160e11b815260040160405180910390fd5b61045183610f7a565b6001600160a01b0383166000908152600460209081526040808320338452909152902054828110156104965760405163ac4314a960e01b815260040160405180910390fd5b6104a08382611633565b6001600160a01b0385166000818152600460209081526040808320338452825280832094909455918152600290915290812060010180548592906104e5908490611633565b9091555061050090506001600160a01b03851633308661112c565b60405183815233906001600160a01b038616907f05f2eeda0e08e4b437f487c8d7d29b14537d15e3488170dc3de5dbdf8dac46849060200160405180910390a3505061054c6001600055565b5050565b610558610f2c565b610560610f56565b826001600160a01b0381166105885760405163ab42242d60e01b815260040160405180910390fd5b61059184610f7a565b6001600160a01b03808516600081815260036020908152604080832094881680845294825280832054938352600482528083209483529390529190912054670de0b6b3a7640000916105e591879190611199565b106106035760405163085048a960e21b815260040160405180910390fd5b6001600160a01b0380851660009081526004602090815260408083209387168352929052205482158061063557508083115b156106535760405163ac4314a960e01b815260040160405180910390fd5b6106686001600160a01b03861633308661112c565b6106728382611633565b6001600160a01b038087166000818152600460209081526040808320948a168352938152838220949094559081526002909252812060010180548592906106ba908490611633565b9091555060009050670de0b6b3a76400006106dd670e92596fd629000086611646565b6106e7919061165d565b6001600160a01b038088166000908152600360209081526040808320938a16835292905220549091508082111561071c578091505b6107268282611633565b6001600160a01b038089166000818152600360209081526040808320948c1683529381528382209490945590815260029092528120805484929061076b908490611633565b9091555061078590506001600160a01b03881633846112d4565b856001600160a01b0316876001600160a01b03167ff3fa0eaee8f258c23b013654df25d1527f98a5c7ccd5e951dd77caca400ef97287856040516107d3929190918252602082015260400190565b60405180910390a3505050506107e96001600055565b505050565b6107f6611305565b6107fe611338565b565b610808610f2c565b610810610f56565b816001600160a01b0381166108385760405163ab42242d60e01b815260040160405180910390fd5b81600003610859576040516365e52d5160e11b815260040160405180910390fd5b6108628361138a565b6108776001600160a01b03841633308561112c565b6001600160a01b0383166000908152600260205260408120805484929061089f90849061167f565b90915550506001600160a01b0383166000908152600360209081526040808320338452909152812080548492906108d790849061167f565b90915550506040516340c10f1960e01b8152336004820152602481018390527f00000000000000000000000000000000000000000000000000000000000000006001600160a01b0316906340c10f1990604401600060405180830381600087803b15801561094457600080fd5b505af1158015610958573d6000803e3d6000fd5b50506040518481523392506001600160a01b03861691507f5548c837ab068cf56a2c2479df0882a4922fd203edb7517321831d95078c5f629060200160405180910390a35061054c6001600055565b6109af610f2c565b6109b7610f56565b816001600160a01b0381166109df5760405163ab42242d60e01b815260040160405180910390fd5b81600003610a00576040516365e52d5160e11b815260040160405180910390fd5b610a0983610f7a565b6001600160a01b0383166000908152600460209081526040808320338452909152812054610a3890849061167f565b6001600160a01b038516600090815260036020908152604080832033845290915281205491925090610a6c90869084611199565b9050670de0b6b3a7640000811015610a975760405163317416e560e11b815260040160405180910390fd5b6001600160a01b03851660009081526002602052604081206001018054869290610ac290849061167f565b90915550506001600160a01b0385166000818152600460209081526040808320338085529252909120849055610af99190866112d4565b60405184815233906001600160a01b038716907f312a5e5e1079f5dda4e95dbbd0b908b291fd5b992ef22073643ab691572c5b52906020015b60405180910390a350505061054c6001600055565b6001600160a01b038083166000818152600360209081526040808320948616808452948252808320549383526004825280832094835293905291822054610b8f918591611199565b90505b92915050565b610ba0611305565b610ba8611423565b806001600160a01b038116610bd05760405163ab42242d60e01b815260040160405180910390fd5b6040516370a0823160e01b81523060048201526000906001600160a01b038416906370a0823190602401602060405180830381865afa158015610c17573d6000803e3d6000fd5b505050506040513d601f19601f82011682018060405250810190610c3b9190611692565b9050610c516001600160a01b03841633836112d4565b826001600160a01b03167f23d6711a1d031134a36921253c75aa59e967d38e369ac625992824315e204f2082604051610c8c91815260200190565b60405180910390a2505050565b610ca1611305565b6107fe6000611446565b610cb3611305565b6107fe6114a0565b610cc3611305565b6001600160a01b038116610cf257604051631e4fbdf760e01b8152600060048201526024015b60405180910390fd5b610cfb81611446565b50565b610d06610f2c565b610d0e610f56565b816001600160a01b038116610d365760405163ab42242d60e01b815260040160405180910390fd5b81600003610d57576040516365e52d5160e11b815260040160405180910390fd5b610d608361138a565b6001600160a01b038316600090815260036020908152604080832033845290915290205482811015610da557604051633a23d82560e01b815260040160405180910390fd5b6000610dde85610db58685611633565b6001600160a01b0388166000908152600460209081526040808320338452909152902054611199565b9050670de0b6b3a7640000811015610e095760405163317416e560e11b815260040160405180910390fd5b610e138483611633565b6001600160a01b038616600081815260036020908152604080832033845282528083209490945591815260029091529081208054869290610e55908490611633565b9091555050604051632770a7eb60e21b8152336004820152602481018590527f00000000000000000000000000000000000000000000000000000000000000006001600160a01b031690639dc29fac90604401600060405180830381600087803b158015610ec257600080fd5b505af1158015610ed6573d6000803e3d6000fd5b50610eef925050506001600160a01b03861633866112d4565b60405184815233906001600160a01b038716907f9b1bfa7fa9ee420a16e124f794c35ac9f90472acc99140eb2f6447c714cad8eb90602001610b32565b600260005403610f4f57604051633ee5aeb560e01b815260040160405180910390fd5b6002600055565b60015460ff16156107fe5760405163d93c066560e01b815260040160405180910390fd5b6001600160a01b038116600090815260026020819052604082209081015490914291610fb490600160801b900464ffffffffff16836116ab565b90508064ffffffffff16600003610fcb5750505050565b8254600090156110025783546001850154610ff3906b033b2e3c9fd0803ce800000090611646565b610ffd919061165d565b611010565b6b033b2e3c9fd0803ce80000005b604051634fd41dad60e11b8152600481018290529091506000906001600160a01b037f00000000000000000000000000000000000000000000000000000000000000001690639fa83b5a90602401602060405180830381865afa15801561107b573d6000803e3d6000fd5b505050506040513d601f19601f8201168201806040525081019061109f9190611692565b60028601549091506001600160801b03166b033b2e3c9fd0803ce8000000816110cf64ffffffffff871685611646565b6110d99190611646565b6110e3919061165d565b6110ed919061167f565b6002909501805464ffffffffff909516600160801b026001600160a81b03199095166001600160801b0396909616959095179390931790935550505050565b6040516001600160a01b0384811660248301528381166044830152606482018390526111939186918216906323b872dd906084015b604051602081830303815290604052915060e01b6020820180516001600160e01b0383818316178352505050506114db565b50505050565b6000816000036111ac57506000196112cd565b6040516341976e0960e01b81526001600160a01b03858116600483015260009182917f000000000000000000000000000000000000000000000000000000000000000016906341976e09906024016040805180830381865afa158015611216573d6000803e3d6000fd5b505050506040513d601f19601f8201168201806040525081019061123a91906116c8565b9092509050600061124c82600a6117e6565b6112568488611646565b611260919061165d565b9050600061126f83600a6117e6565b6112798588611646565b611283919061165d565b9050670b1a2bc2ec5000006112a0670de0b6b3a764000083611646565b6112aa919061165d565b6112bc670de0b6b3a764000084611646565b6112c6919061165d565b9450505050505b9392505050565b6040516001600160a01b038381166024830152604482018390526107e991859182169063a9059cbb90606401611161565b6001546001600160a01b036101009091041633146107fe5760405163118cdaa760e01b8152336004820152602401610ce9565b611340611423565b6001805460ff191690557f5db9ee0a495bf2e6ff9c91a7834c1ba4fdd244a5e8aa4e537bd38aeae4b073aa335b6040516001600160a01b03909116815260200160405180910390a1565b6001600160a01b038116600090815260026020819052604082209081015490916001600160801b0390911690036113e5576002810180546fffffffffffffffffffffffffffffffff19166b033b2e3c9fd0803ce80000001790555b6002810154600160801b900464ffffffffff1660000361054c57600201805464ffffffffff60801b1916600160801b4264ffffffffff160217905550565b60015460ff166107fe57604051638dfc202b60e01b815260040160405180910390fd5b600180546001600160a01b03838116610100818102610100600160a81b031985161790945560405193909204169182907f8be0079c531659141344cd1fd0a4f28419497f9722a3daafe3b4186f6b6457e090600090a35050565b6114a8610f56565b6001805460ff1916811790557f62e78cea01bee320cd4e420270b5ea74000d11b0c9f74754ebdbfc544b05a2583361136d565b600080602060008451602086016000885af1806114fe576040513d6000823e3d81fd5b50506000513d91508115611516578060011415611523565b6001600160a01b0384163b155b1561119357604051635274afe760e01b81526001600160a01b0385166004820152602401610ce9565b80356001600160a01b038116811461156357600080fd5b919050565b6000806040838503121561157b57600080fd5b6115848361154c565b946020939093013593505050565b6000806000606084860312156115a757600080fd5b6115b08461154c565b92506115be6020850161154c565b929592945050506040919091013590565b6000602082840312156115e157600080fd5b610b8f8261154c565b600080604083850312156115fd57600080fd5b6116068361154c565b91506116146020840161154c565b90509250929050565b634e487b7160e01b600052601160045260246000fd5b81810381811115610b9257610b9261161d565b8082028115828204841417610b9257610b9261161d565b60008261167a57634e487b7160e01b600052601260045260246000fd5b500490565b80820180821115610b9257610b9261161d565b6000602082840312156116a457600080fd5b5051919050565b64ffffffffff8281168282160390811115610b9257610b9261161d565b600080604083850312156116db57600080fd5b8251602084015190925060ff811681146116f457600080fd5b809150509250929050565b6001815b600184111561173a5780850481111561171e5761171e61161d565b600184161561172c57908102905b60019390931c928002611703565b935093915050565b60008261175157506001610b92565b8161175e57506000610b92565b8160018114611774576002811461177e5761179a565b6001915050610b92565b60ff84111561178f5761178f61161d565b50506001821b610b92565b5060208310610133831016604e8410600b84101617156117bd575081810a610b92565b6117ca60001984846116ff565b80600019048211156117de576117de61161d565b029392505050565b6000610b8f60ff84168361174256fea2646970667358221220178756fb801d5519de3ebcf3a07b3f1f23cb9b07911dccfb36f62bc4a7c4e94364736f6c634300081c0033",
  "linkReferences": {},
  "deployedLinkReferences": {}
}