{
  "_format": "hh-sol-artifact-1",
  "contractName": "PriceOracle",
  "sourceName": "contracts/PriceOracle.sol",
  "abi": [
    {
      "inputs": [],
      "stateMutability": "nonpayable",
      "type": "constructor"
    },
    {
      "inputs": [],
      "name": "EnforcedPause",
      "type": "error"
    },
    {
      "inputs": [],
      "name": "ExpectedPause",
      "type": "error"
    },
    {
      "inputs": [
        {
          "internalType": "address",
          "name": "owner",
          "type": "address"
        }
      ],
      "name": "OwnableInvalidOwner",
      "type": "error"
    },
    {
      "inputs": [
        {
          "internalType": "address",
          "name": "account",
          "type": "address"
        }
      ],
      "name": "OwnableUnauthorizedAccount",
      "type": "error"
    },
    {
      "anonymous": false,
      "inputs": [
        {
          "indexed": true,
          "internalType": "address",
          "name": "token",
          "type": "address"
        },
        {
          "indexed": true,
          "internalType": "address",
          "name": "feed",
          "type": "address"
        }
      ],
      "name": "FeedSet",
      "type": "event"
    },
    {
      "anonymous": false,
      "inputs": [
        {
          "indexed": true,
          "internalType": "address",
          "name": "previousOwner",
          "type": "address"
        },
        {
          "indexed": true,
          "internalType": "address",
          "name": "newOwner",
          "type": "address"
        }
      ],
      "name": "OwnershipTransferred",
      "type": "event"
    },
    {
      "anonymous": false,
      "inputs": [
        {
          "indexed": false,
          "internalType": "address",
          "name": "account",
          "type": "address"
        }
      ],
      "name": "Paused",
      "type": "event"
    },
    {
      "anonymous": false,
      "inputs": [
        {
          "indexed": false,
          "internalType": "address",
          "name": "account",
          "type": "address"
        }
      ],
      "name": "Unpaused",
      "type": "event"
    },
    {
      "inputs": [
        {
          "internalType": "address",
          "name": "token",
          "type": "address"
        }
      ],
      "name": "getFeed",
      "outputs": [
        {
          "internalType": "address",
          "name": "",
          "type": "address"
        }
      ],
      "stateMutability": "view",
      "type": "function"
    },
    {
      "inputs": [
        {
          "internalType": "address",
          "name": "token",
          "type": "address"
        }
      ],
      "name": "getPrice",
      "outputs": [
        {
          "internalType": "uint256",
          "name": "price",
          "type": "uint256"
        },
        {
          "internalType": "uint8",
          "name": "decimals",
          "type": "uint8"
        }
      ],
      "stateMutability": "view",
      "type": "function"
    },
    {
      "inputs": [],
      "name": "owner",
      "outputs": [
        {
          "internalType": "address",
          "name": "",
          "type": "address"
        }
      ],
      "stateMutability": "view",
      "type": "function"
    },
    {
      "inputs": [],
      "name": "pause",
      "outputs": [],
      "stateMutability": "nonpayable",
      "type": "function"
    },
    {
      "inputs": [],
      "name": "paused",
      "outputs": [
        {
          "internalType": "bool",
          "name": "",
          "type": "bool"
        }
      ],
      "stateMutability": "view",
      "type": "function"
    },
    {
      "inputs": [],
      "name": "renounceOwnership",
      "outputs": [],
      "stateMutability": "nonpayable",
      "type": "function"
    },
    {
      "inputs": [
        {
          "internalType": "address",
          "name": "token",
          "type": "address"
        },
        {
          "internalType": "address",
          "name": "feed",
          "type": "address"
        }
      ],
      "name": "setFeed",
      "outputs": [],
      "stateMutability": "nonpayable",
      "type": "function"
    },
    {
      "inputs": [
        {
          "internalType": "address",
          "name": "newOwner",
          "type": "address"
        }
      ],
      "name": "transferOwnership",
      "outputs": [],
      "stateMutability": "nonpayable",
      "type": "function"
    },
    {
      "inputs": [],
      "name": "unpause",
      "outputs": [],
      "stateMutability": "nonpayable",
      "type": "function"
    }
  ],
  "bytecode": "0x6080604052348015600f57600080fd5b503380603557604051631e4fbdf760e01b81526000600482015260240160405180910390fd5b603c816041565b506091565b600080546001600160a01b038381166001600160a01b0319831681178455604051919092169283917f8be0079c531659141344cd1fd0a4f28419497f9722a3daafe3b4186f6b6457e09190a35050565b610704806100a06000396000f3fe608060405234801561001057600080fd5b50600436106100935760003560e01c80635c975abb116100665780635c975abb14610128578063715018a6146101455780638456cb591461014d5780638da5cb5b14610155578063f2fde38b1461016657600080fd5b806316b8e731146100985780633f4ba83a146100e157806340b1eb10146100eb57806341976e09146100fe575b600080fd5b6100c46100a63660046105ea565b6001600160a01b039081166000908152600160205260409020541690565b6040516001600160a01b0390911681526020015b60405180910390f35b6100e9610179565b005b6100e96100f936600461060c565b61018b565b61011161010c3660046105ea565b610247565b6040805192835260ff9091166020830152016100d8565b600054600160a01b900460ff1660405190151581526020016100d8565b6100e9610404565b6100e9610416565b6000546001600160a01b03166100c4565b6100e96101743660046105ea565b610426565b610181610464565b610189610491565b565b610193610464565b6001600160a01b038216158015906101b357506001600160a01b03811615155b6101f05760405162461bcd60e51b81526020600482015260096024820152682d22a927afa0a2222960b91b60448201526064015b60405180910390fd5b6001600160a01b0382811660008181526001602052604080822080546001600160a01b0319169486169485179055517f3206e79c8cb385b303820bc579358c388d2f7539de2fa2f24644faf6bd0354d19190a35050565b6000806102526104e6565b6001600160a01b0380841660009081526001602052604090205416806102a95760405162461bcd60e51b815260206004820152600c60248201526b1191515117d393d517d4d15560a21b60448201526064016101e7565b600080826001600160a01b031663feaf968c6040518163ffffffff1660e01b815260040160a060405180830381865afa1580156102ea573d6000803e3d6000fd5b505050506040513d601f19601f8201168201806040525081019061030e9190610659565b50935050925050600082136103555760405162461bcd60e51b815260206004820152600d60248201526c494e56414c49445f505249434560981b60448201526064016101e7565b806000036103955760405162461bcd60e51b815260206004820152600d60248201526c12539050d512559157d1915151609a1b60448201526064016101e7565b81836001600160a01b031663313ce5676040518163ffffffff1660e01b8152600401602060405180830381865afa1580156103d4573d6000803e3d6000fd5b505050506040513d601f19601f820116820180604052508101906103f891906106ab565b94509450505050915091565b61040c610464565b6101896000610511565b61041e610464565b610189610561565b61042e610464565b6001600160a01b03811661045857604051631e4fbdf760e01b8152600060048201526024016101e7565b61046181610511565b50565b6000546001600160a01b031633146101895760405163118cdaa760e01b81523360048201526024016101e7565b6104996105a4565b6000805460ff60a01b191690557f5db9ee0a495bf2e6ff9c91a7834c1ba4fdd244a5e8aa4e537bd38aeae4b073aa335b6040516001600160a01b03909116815260200160405180910390a1565b600054600160a01b900460ff16156101895760405163d93c066560e01b815260040160405180910390fd5b600080546001600160a01b038381166001600160a01b0319831681178455604051919092169283917f8be0079c531659141344cd1fd0a4f28419497f9722a3daafe3b4186f6b6457e09190a35050565b6105696104e6565b6000805460ff60a01b1916600160a01b1790557f62e78cea01bee320cd4e420270b5ea74000d11b0c9f74754ebdbfc544b05a2586104c93390565b600054600160a01b900460ff1661018957604051638dfc202b60e01b815260040160405180910390fd5b80356001600160a01b03811681146105e557600080fd5b919050565b6000602082840312156105fc57600080fd5b610605826105ce565b9392505050565b6000806040838503121561061f57600080fd5b610628836105ce565b9150610636602084016105ce565b90509250929050565b805169ffffffffffffffffffff811681146105e557600080fd5b600080600080600060a0868803121561067157600080fd5b61067a8661063f565b6020870151604088015160608901519297509095509350915061069f6080870161063f565b90509295509295909350565b6000602082840312156106bd57600080fd5b815160ff8116811461060557600080fdfea26469706673582212207becc4bf357873cf20956d3499e012cebeb3edd4bbc9bc40f1963bc4d123307564736f6c634300081c0033",
  "linkReferences": {},
  "deployedLinkReferences": {}
}